:020000040800F2
:1000000000000220311E0008691D00086B1D000859
:100010006D1D00086F1D0008711D00080000000024
:10002000000000000000000000000000731D000838
:10003000751D000800000000771D0008791D0008EC
:10004000811E0008811E0008811E0008811E000814
:10005000811E0008811E0008811E0008811E000804
:10006000811E0008811E0008811E0008811E0008F4
:10007000811E0008811E0008811E0008811E0008E4
:10008000811E0008811E0008811E0008811E0008D4
:10009000811E0008811E0008811E0008811E0008C4
:1000A000811E0008811E0008811E0008811E0008B4
:1000B000811E0008811E0008811E0008811E0008A4
:1000C000811E0008811E0008811E0008811E000894
:1000D000811E0008811E0008811E0008811E000884
:1000E000811E0008811E0008811E0008811E000874
:1000F000811E0008811E0008811E0008811E000864
:10010000811E0008811E0008811E0008811E000853
:10011000811E0008811E0008811D0008811E000844
:10012000811E0008811E0008811E0008811E000833
:10013000811E00080000000000000000811E000871
:10014000811E0008811E0008811E0008811E000813
:10015000811E0008811E0008811E0008811E000803
:10016000811E0008811E0008811E0008811E0008F3
:10017000811E0008811E0008811E0008000000008A
:1001800000000000811E00080000000000000000C8
:10019000811E00080000000000000000811E000811
:1001A000000000000000000000000000811E0008A8
:1001B000811E0008811E0008811E0008811E0008A3
:0401C000811E000894
:1001D00010B5054C237833B9044B13B10448AFF381
:1001E00000800123237010BD70000020000000007B
:1001F000C02C000808B5034B1BB103490348AFF3FB
:10020000008008BD0000000074000020C02C000821
:1002100053B94AB9002908BF00281CBF4FF0FF316D
:100220004FF0FF3000F072B9ADF1080C6DE904CE6B
:1002300000F006F8DDF804E0DDE9022304B07047C1
:100240002DE9F047089E04468846002B4BD18A4290
:10025000154667D9B2FA82F24AB1C2F1200701FA13
:1002600002F320FA07F7954047EA030894404FEA63
:10027000154E230CB8FBFEF71FFA85FC0EFB178802
:1002800043EA084307FB0CF1994209D9EB1807F13F
:10029000FF3080F01B81994240F21881023F2B44CD
:1002A0005B1AA4B2B3FBFEF00EFB103344EA034426
:1002B00000FB0CFCA44509D92C1900F1FF3380F098
:1002C0000781A44540F2048102382C4440EA0740EB
:1002D000A4EB0C0400271EB1D4400023C6E9004360
:1002E0003946BDE8F0878B4209D9002E00F0EB803B
:1002F0000027C6E9000138463946BDE8F087B3FA61
:1003000083F7002F47D18B4202D3824200F2FA805A
:10031000841A61EB030301209846002EE0D0C6E961
:100320000048DDE702B9FFDEB2FA82F2002A40F0AF
:100330008F80491B4FEA154E1FFA85F80127B1FB44
:10034000FEFC230C0EFB1C1143EA014308FB0CF1DD
:10035000994207D9EB180CF1FF3002D2994200F212
:10036000CD808446591AA3B2B1FBFEF00EFB1014E7
:1003700043EA044408FB00F8A04507D92C1900F112
:10038000FF3302D2A04500F2B6801846A4EB080461
:1003900040EA0C409FE7C7F1200CBB4022FA0CFE5C
:1003A0004EEA030E01FA07F420FA0CF521FA0CF3D9
:1003B0004FEA1E482543B3FBF8F92C0C08FB193310
:1003C0001FFA8EFA44EA034309FB0AF49C4202FA3C
:1003D00007F200FA07F10BD91EEB030309F1FF3016
:1003E00080F087809C4240F28480A9F10209734426
:1003F0001B1BADB2B3FBF8F008FB103345EA034416
:1004000000FB0AFAA24508D91EEB040400F1FF33F1
:100410006BD2A24569D90238744440EA0940A0FB76
:100420000289A4EB0A044C45C2464B4654D351D032
:10043000002E69D0B1EB0A0564EB030404FA0CFC4E
:10044000FD40FC404CEA0505C6E90054002747E79B
:10045000C2F1200320FA03F7954001FA02F021FAD5
:1004600003F34FEA154E3843010CB3FBFEF71FFAB6
:1004700085F80EFB173341EA034107FB08F38B4273
:1004800004FA02F407D9691807F1FF3C2FD28B4216
:100490002DD9023F2944CB1A81B2B3FBFEF00EFBEB
:1004A000103341EA034100FB08F38B4207D9691876
:1004B00000F1FF3C17D28B4215D902382944C91AE2
:1004C00040EA07473BE73746304609E70746E7E695
:1004D0001846FBE64145ABD2B8EB020A69EB0E02C7
:1004E00001381346A4E76046E9E7184695E76746F2
:1004F000D1E781467CE702382C4447E7ACF1020C97
:100500002B442FE7384608E73746E9E6704700BF37
:1005100001F0FF01102A2BDB10F0070F08D010F8B4
:10052000013B013A8B422DD010F0070F42B3F6D1B8
:10053000F0B441EA012141EA014122F007047FF0D1
:1005400000070023F0E80256083C85EA010586EA28
:10055000010685FA47F5A3FA87F586FA47F6A5FA64
:1005600087F68EB9EED1F0BC01F0FF0102F0070270
:1005700032B110F8013B013A83EA010313B1F8D11B
:100580000020704701387047002D06BF35460338FC
:10059000073815F0010F07D1013015F4807F02BF35
:1005A000013015F4C03F0130F0BC0138704700BF86
:1005B00010B504460E4B18784FF47A73B3FBF0F382
:1005C0000C4A1068B0FBF3F000F096F868B90F2CF5
:1005D00001D901200AE0002221464FF0FF3000F04F
:1005E00049F8034B5C60002000E0012010BD00BF13
:1005F000000000200800002008B50B4B1A6842F4E8
:1006000000721A601A6842F480621A601A6842F432
:1006100080721A60032000F01BF80020FFF7C8FF6B
:1006200001F028FB002008BD003C0240034A11688D
:10063000034B1B780B441360704700BFAC000020D5
:1006400000000020014B1868704700BFAC0000207C
:10065000074AD36823F4E0631B041B0C000200F478
:10066000E060184340F0BF6040F40030D060704755
:1006700000ED00E030B4174BDB68C3F30223C3F195
:100680000704042C28BF04241D1D062D18D9033B84
:100690004FF0FF3505FA04F421EA0401994005FA08
:1006A00003F322EA0303194300280BDB0901C9B253
:1006B00000F1604000F5614080F8001330BC7047E5
:1006C0000023E5E700F00F000901C9B2024B1954FD
:1006D000F4E700BF00ED00E014ED00E0002807DBC8
:1006E00000F01F02400901239340024A42F82030E3
:1006F000704700BF00E100E00138B0F1807F0AD20E
:10070000064B5860064AF02182F8231000209860BA
:1007100007221A6070470120704700BF10E000E018
:1007200000ED00E000230F2B00F2D180F0B482B086
:1007300039E0062200E00022B2403A430234644E1F
:1007400046F82420634A1468EA4302EA04064F6824
:1007500017F4803F01D045EA04065E4C26606468C9
:1007600002EA04064F6817F4003F01D045EA040688
:10077000584C6660A46802EA04064F6817F4801FAC
:1007800001D045EA0406534CA660E46822404E6856
:1007900016F4001F01D045EA04024E4CE26001331A
:1007A0000F2B00F2918001229A400C6804EA0205A6
:1007B000AA42F4D14C68022C01D0122C10D1DE08D0
:1007C000083650F826C003F00704A7000F24BC40E9
:1007D0002CEA040C0C69BC4044EA0C0440F82640A6
:1007E00004685F000326BE40F64306EA040C4C682A
:1007F00004F00304BC4044EA0C0404604C6804F1B7
:10080000FF3CBCF1010F03D9112C01D0122C10D1E7
:10081000846806EA040CCC68BC4044EA0C0484609A
:10082000446824EA02024C68C4F300149C40144358
:100830004460C26816408A68BA403243C2604A685F
:1008400012F0805FABD000220192234A546C44F432
:1008500080445464526C02F480420192019A9C08D4
:10086000A61C1B4A52F8267003F0030296000F22C2
:10087000B24027EA0207194A90423FF45CAF02F502
:100880008062904216D002F58062904214D002F548
:100890008062904212D002F58062904210D002F540
:1008A000806290420ED002F5806290423FF441AFE8
:1008B000072241E701223FE702223DE703223BE70F
:1008C000042239E7052237E702B0F0BC70477047D1
:1008D00000380140003C0140003802400000024066
:1008E000014B01221A6070474C004742002800F07B
:1008F0009D8070B504464F4B1B6803F00F038B427D
:1009000009D2CBB24B4A1370136803F00F038B422A
:1009100001D0012070BD236813F0020F17D013F02F
:10092000040F04D0444A936843F4E053936023686F
:1009300013F0080F04D0404A936843F46043936077
:100940003D4A936823F0F003A068034393600D468B
:10095000236813F0010F32D06368012B21D09A1E57
:10096000012A25D9344A126812F0020F60D03249A8
:100970008A6822F0030213438B60FFF763FE06468A
:100980002D4B9B6803F00C036268B3EB820F16D00B
:10099000FFF758FE801B41F288339842F0D90320BC
:1009A000B8E7254A126812F4003FE0D10120B1E710
:1009B000214A126812F0007FD9D10120AAE71D4B0D
:1009C0001B6803F00F03AB4209D9EAB2194B1A7046
:1009D0001B6803F00F03AB4201D001209AE72368A4
:1009E00013F0040F06D0144A936823F4E053E1682F
:1009F0000B439360236813F0080F07D00E4A9368E7
:100A000023F46043216943EAC103936000F040F896
:100A1000094B9B68C3F30313084AD35CD840084BC7
:100A200018600020FFF7C4FD002073E70120704725
:100A300001206FE7003C024000380240D82C00083B
:100A400008000020014B1868704700BF0800002014
:100A500008B5FFF7F7FF044B9B68C3F38223034AF3
:100A6000D35CD84008BD00BF00380240E82C000825
:100A700008B5FFF7E7FF044B9B68C3F34233034A13
:100A8000D35CD84008BD00BF00380240E82C000805
:100A90002DE9F04B5C4B9B6803F00C03082B07D04F
:100AA0000C2B5BD0042B00F0AD805848BDE8F08BD8
:100AB000554B5A6802F03F025B6813F4800F2AD04E
:100AC000514B5B68C3F388131E4600275C01002569
:100AD000E41A65EB0705A90141EA9461A001001B36
:100AE00061EB0501CB0043EA5073C400A01943EB4E
:100AF00007014B0243EAD053440220461946002323
:100B0000FFF786FB404B5B68C3F3014301335B0097
:100B1000B0FBF3F0CAE73C4B5B68C3F388131E4697
:100B200000275C010025E41A65EB0705A90141EAED
:100B30009461A001001B61EB0501CB0043EA5073F7
:100B4000C400A01943EB07018B0243EA90538402CF
:100B5000204619460023FFF75BFBD3E72A4B5A6870
:100B600002F03F025B6813F4800F28D0264B5B68CD
:100B7000C3F388131E4600275C010025E41A65EBC9
:100B80000705A90141EA9461A001001B61EB050181
:100B9000CB0043EA5073C400A01943EB07014B029A
:100BA00043EAD0534402204619460023FFF730FBA6
:100BB000154B5B68C3F30273B0FBF3F076E7124B9F
:100BC0005B68C3F388131E4600275C010025E41A06
:100BD00065EB0705A90141EA9461A001001B61EBE7
:100BE0000501CB0043EA5073C400A01943EB070191
:100BF0008B0243EA90538402204619460023FFF7F4
:100C000007FBD5E7024851E7003802400024F40012
:100C100000127A0070B582B00446036813F0010F29
:100C200041D0A64B9B6803F00C03042B32D0A34B9E
:100C30009B6803F00C03082B27D0A04B9B6803F0A4
:100C40000C030C2B59D06368B3F5803F5BD0B3F530
:100C5000A02F5ED0994B1A6822F480321A601A686D
:100C600022F480221A606368002B5CD0FFF7EAFC54
:100C70000546924B1B6813F4003F14D1FFF7E2FCCA
:100C8000401B6428F5D903209DE18C4B5B6813F46D
:100C9000800FD2D0894B1B6813F4003F03D06368E8
:100CA000002B00F08D81236813F0020F67D0834B77
:100CB0009B6813F00C0F4AD0804B9B6803F00C0329
:100CC000082B3FD07D4B9B6803F00C030C2B48D0C6
:100CD000E368002B74D07A4B01221A60FFF7B2FC54
:100CE0000546764B1B6813F0020F60D1FFF7AAFC94
:100CF000401B0228F5D9032065E1704B5B6813F4B3
:100D0000800FA0D0C6E76D4A136843F480331360A8
:100D1000A9E76A4B1A6842F480221A601A6842F402
:100D200080321A609FE7FFF78DFC0546634B1B6816
:100D300013F4003FB7D0FFF785FC401B6428F5D9BA
:100D4000032040E15D4B5B6813F4800FBAD15B4B2D
:100D50001B6813F0020F0AD0E368012B07D00120B3
:100D600031E1564B5B6813F4800FB1D1EFE7534A82
:100D7000136823F0F803216943EAC1031360236871
:100D800013F0080F40D0636963B34E4B01221A6021
:100D9000FFF758FC0546494B5B6F13F0020F33D148
:100DA000FFF750FC401B0228F5D903200BE1434A12
:100DB000136823F0F803216943EAC1031360DEE7F7
:100DC0003F4B00221A60FFF73DFC05463B4B1B687A
:100DD00013F0020FD3D0FFF735FC401B0228F5D9E2
:100DE0000320F0E0374B00221A60FFF72BFC05468A
:100DF000324B5B6F13F0020F06D0FFF723FC401B52
:100E00000228F5D90320DEE0236813F0040F79D01F
:100E10002A4B1B6C13F0805F33D100230193274BC7
:100E20001A6C42F080521A641B6C03F080530193D9
:100E3000019B0125244B1B6813F4807F23D0A368FA
:100E4000012B34D0052B41D01C4B1A6F22F001022C
:100E50001A671A6F22F004021A67A368002B3FD0AA
:100E6000FFF7F0FB0646154B1B6F13F0020F48D13E
:100E7000FFF7E8FB801B41F288339842F3D9032047
:100E8000A1E00025D6E7104A136843F4807313608D
:100E9000FFF7D8FB06460C4B1B6813F4807FCED1BE
:100EA000FFF7D0FB801B0228F5D903208BE0034A13
:100EB000136F43F001031367CFE700BF0038024010
:100EC00000004742800E474200700040404B1A6FBE
:100ED00042F004021A671A6F42F001021A67BCE777
:100EE000FFF7B0FB06463A4B1B6F13F0020F08D01A
:100EF000FFF7A8FB801B41F288339842F3D9032007
:100F000061E0E5B9A369002B5CD0314A926802F038
:100F10000C02082A59D0022B17D02E4B00221A603F
:100F2000FFF790FB04462A4B1B6813F0007F45D067
:100F3000FFF788FB001B0228F5D9032043E0244A71
:100F4000136C23F080531364DCE7224B00221A60F9
:100F5000FFF778FB05461E4B1B6813F0007F06D099
:100F6000FFF770FB401B0228F5D903202BE0E36953
:100F7000226A1343626A43EA8213A26A5208013A60
:100F800043EA0243E26A43EA0263226B43EA0273E2
:100F90000F4A53600F4B01221A60FFF753FB0446C0
:100FA0000B4B1B6813F0007F06D1FFF74BFB001BB8
:100FB0000228F5D9032006E0002004E0002002E02A
:100FC000012000E0002002B070BD0120FBE700BF5F
:100FD00000380240600047420268D36843F00103D2
:100FE000D3600268936803F00703062B03D01368ED
:100FF00043F001031360002070477047704770474B
:10100000704710B5044603681A6912F0020F11D038
:10101000DA6812F0020F0DD06FF002021A6101239C
:10102000037703689B6913F0030F70D0FFF7E6FFA7
:101030000023237723681A6912F0040F12D0DA68AC
:1010400012F0040F0ED06FF004021A61022323770E
:1010500023689B6913F4407F5FD02046FFF7CEFFE3
:101060000023237723681A6912F0080F12D0DA6878
:1010700012F0080F0ED06FF008021A6104232377D4
:101080002368DB6913F0030F4ED02046FFF7B6FF4D
:101090000023237723681A6912F0100F12D0DA6840
:1010A00012F0100F0ED06FF010021A610823237790
:1010B0002368DB6913F4407F3DD02046FFF79EFF95
:1010C0000023237723681A6912F0010F03D0DA682E
:1010D00012F0010F36D123681A6912F0800F03D085
:1010E000DA6812F0800F34D123681A6912F0400FC9
:1010F00003D0DA6812F0400F32D123681A6912F077
:10110000200F03D0DA6812F0200F30D110BDFFF7A6
:1011100074FF2046FFF773FF8AE72046FFF76DFF55
:101120002046FFF76CFF9BE72046FFF766FF20464F
:10113000FFF765FFACE72046FFF75FFF2046FFF7AC
:101140005EFFBDE76FF001021A61204600F0A8FCC7
:10115000C1E76FF080021A61204600F0B0F8C3E7E3
:101160006FF040021A612046FFF74AFFC5E76FF0B3
:1011700020021A61204600F0A1F8C7E70368304A50
:10118000904212D0B0F1804F0FD0A2F57C42904235
:101190000BD002F58062904207D002F58062904247
:1011A00003D002F57842904203D123F070034A68DD
:1011B0001343234A90422AD0B0F1804F27D0A2F5A2
:1011C0007C42904223D002F5806290421FD002F50B
:1011D000806290421BD002F57842904217D002F50F
:1011E0007052904213D002F5806290420FD002F507
:1011F000806290420BD0A2F59832904207D002F55F
:101200008062904203D002F58062904203D123F4C1
:101210004073CA68134323F080034A691343036091
:101220008B68C3620B688362054B984203D003F559
:101230008063984201D10B690363012343617047C6
:1012400000000140A8B110B5044690F83D305BB1F4
:10125000022384F83D30211D2068FFF78FFF012312
:1012600084F83D30002010BD80F83C3000F022FDB5
:10127000EEE70120704790F83C30012B1CD070B491
:10128000012680F83C60022380F83D3002685568F2
:10129000936825F070050C682C4323F080054B689B
:1012A0002B4354600268936080F83D60002380F80F
:1012B0003C30184670BC704702207047704770473A
:1012C0002DE9F84304460268136923F44053C168CA
:1012D0000B43136183680269134342691343C26974
:1012E0001A430168CB6823F4164323F00C0313431D
:1012F000CB600268536923F4407381690B435361E7
:10130000C369B3F5004F60D00368B84A934200F058
:10131000148102F58062934200F00F81FFF798FB81
:1013200000EB800000EB80006568AD00B0FBF5F5D8
:10133000AF4FA7FB05356D092E01FFF789FB00EBC9
:10134000800000EB80006568AD00B0FBF5F9FFF7A9
:101350007FFB00EB800000EB80006568AD00B0FB18
:10136000F5F5A7FB05356D094FF0640808FB1595E9
:101370002D013235A7FB05356D0905F0F005354423
:10138000FFF766FB00EB800000EB80006668B600AC
:10139000B0FBF6F6FFF75CFB00EB800000EB800093
:1013A00063689B00B0FBF3F0A7FB0030400908FB2B
:1013B00010684FEA081808F13208A7FB0837C7F38E
:1013C000431723682F449F600DE10368874A9342C7
:1013D0005BD002F58062934257D0FFF739FB00EBF8
:1013E000800000EB800065686D00B0FBF5F5804F74
:1013F000A7FB05356D092E01FFF72AFB00EB8000E6
:1014000000EB800065686D00B0FBF5F9FFF720FB8D
:1014100000EB800000EB800065686D00B0FBF5F527
:10142000A7FB05356D094FF0640808FB1595ED0025
:101430003235A7FB05356D096D0005F4F8753544A7
:10144000FFF706FB00EB800000EB8000666876008B
:10145000B0FBF6F6FFF7FCFA00EB800000EB800033
:1014600063685B00B0FBF3F3A7FB03235B0908FB96
:1014700013684FEAC80808F13208A7FB0837C7F31A
:10148000421723682F449F60ADE0FFF7F1FA00EBAD
:10149000800000EB800065686D00B0FBF5F5544FEF
:1014A000A7FB05356D092E01FFF7E2FA00EB80007E
:1014B00000EB800065686D00B0FBF5F9FFF7D8FA26
:1014C00000EB800000EB800065686D00B0FBF5F577
:1014D000A7FB05356D094FF0640808FB1595ED0075
:1014E0003235A7FB05356D096D0005F4F8753544F7
:1014F000FFF7BEFA00EB800000EB80006668760024
:10150000B0FBF6F6FFF7B4FA00EB800000EB8000CA
:1015100063685B00B0FBF3F3A7FB03235B0908FBE5
:1015200013684FEAC80808F13208A7FB0837C7F369
:10153000421723682F449F6055E0FFF799FA00EBAC
:10154000800000EB80006568AD00B0FBF5F5284F2A
:10155000A7FB05356D092E01FFF78AFA00EB800025
:1015600000EB80006568AD00B0FBF5F9FFF780FA8D
:1015700000EB800000EB80006568AD00B0FBF5F586
:10158000A7FB05356D094FF0640808FB15952D0183
:101590003235A7FB05356D0905F0F0053544FFF739
:1015A00067FA00EB800000EB80006668B600B0FBD5
:1015B000F6F6FFF75DFA00EB800000EB8000636851
:1015C0009B00B0FBF3F0A7FB0030400908FB10685C
:1015D0004FEA081808F13208A7FB0837C7F343178A
:1015E00023682F449F60BDE8F88300BF00100140CE
:1015F0001F85EB512DE9F04105460F4616469846EA
:10160000069C2B681B6837EA03030CBF01230023E9
:10161000B3421DD1B4F1FF3FF3D02CB1FFF712F864
:10162000A0EB0800A042ECD92A68D36823F4D07359
:10163000D3602A68536923F001035361202385F89E
:10164000393085F83A30002385F83830032000E03F
:101650000020BDE8F08158B310B5044690F8393049
:101660000BB3242384F839302268D36823F4005361
:10167000D3602046FFF724FE2268136923F49043C9
:1016800013612268536923F02A0353612268D368E7
:1016900043F40053D3600020E063202384F8393002
:1016A00084F83A3010BD80F8383000F023FBD8E7DA
:1016B000012070472DE9F04182B01E4690F8393084
:1016C000DBB2202B55D104460D469046002955D05B
:1016D000002A55D090F83830012B53D0012380F8E0
:1016E00038300023C363212380F83930FEF7AAFF86
:1016F0000746A4F82480A4F8268010E000963B4614
:10170000002280212046FFF775FF00283CD12B885E
:101710002268C3F3080353602369C3B90235E38C1D
:101720009BB2B3B1E38C013B9BB2E384A368B3F5F6
:10173000805FE3D000963B46002280212046FFF7E1
:1017400059FF18BB2A7823685A600135E7E701354D
:10175000E5E700963B46002240212046FFF74AFF7E
:101760000346A8B9202284F83920002284F83820C2
:1017700000E00223184602B0BDE8F0810123F9E73A
:101780000123F7E70223F5E70323F3E70323F1E758
:101790000323EFE72DE9F04182B01E4690F83A307E
:1017A000DBB2202B5AD104460D469046002959D071
:1017B000002A59D090F83830012B57D0012380F8F7
:1017C00038300023C363222380F83A30FEF73AFF13
:1017D0000746A4F82C80A4F82E801DE000963B4616
:1017E000002220212046FFF705FF002840D1236971
:1017F00033B923685B68C3F3080325F8023B0BE0A9
:1018000023685B68DBB225F8013B05E023685B6871
:1018100003F07F032B700135E38D9BB2BBB1E38DE9
:10182000013B9BB2E385A368B3F5805FD6D00096F9
:101830003B46002220212046FFF7DCFED0B9236979
:10184000002BE3D123685B682B700135E4E720238C
:1018500084F83A30002084F8380000E0022002B01A
:10186000BDE8F0810120FAE70120F8E70220F6E761
:101870000320F4E70320F2E784B000220092154B26
:10188000196B41F004011963196B01F00401009117
:1018900000990192196B41F080011963196B01F0F5
:1018A0008001019101990292196B41F001011963C4
:1018B000196B01F001010291029903921A6B42F037
:1018C00002021A631B6B03F002030393039B04B031
:1018D000704700BF0038024010B514460146024868
:1018E00000F0B2FB204610BDF02C000808B50848F7
:1018F000084B03604FF4E133436000238360C3600F
:1019000003610C2242618361C361FFF7A4FE08BD3D
:10191000F80000200044004030B583B00025009559
:1019200001950B4C0B4B236018236360A5604FF6A9
:10193000FF13E3608023A3612046FFF783FC00953B
:10194000019569462046FFF796FC03B030BD00BF05
:10195000B00000200010004010B5084B1C6808487B
:1019600000F072FB04E0218A064800F06DFB646918
:10197000002CF8D1044800F067FB10BD8C0000205B
:10198000F82C0008FC2C0008042D0008F8B50746C8
:101990000E4615461C46182000F09EFA0760466069
:1019A0000581069B0382C460024B1A68426118607D
:1019B000F8BD00BF8C000020024B5A68426158609D
:1019C000704700BF8C000020024B1A68426118600B
:1019D000704700BF8C000020024B186842691A60F3
:1019E000704700BF8C000020024B586842695A6063
:1019F000704700BF8C000020024B1868B0FA80F0DE
:101A0000400970478C000020024B5868B0FA80F003
:101A1000400970478C000020044B1B68002001E047
:101A200001305B69002BFBD1704700BF8C000020A8
:101A3000F8B5FFF7F1FF064600271BE05B69526926
:101A40000131B14214DA1D8A148AA542F6D25C68CB
:101A500055685D6054601C8915891D811481DC689E
:101A6000D568DD60D4601C8A158A1D821482E5E782
:101A70000137013E431EBB4204DD034B1B685A691C
:101A80000121DEE7F8BD00BF8C00002010B582B058
:101A9000BDF810400094FFF779FF002002B010BDA0
:101AA00038B502680D4B9A4200D038BD0C4B1A680D
:101AB000128A5B681B8A9A4200D8F6D1FFF78CFF26
:101AC0000546FFF791FF04462846FFF775FF2046BD
:101AD000FFF77AFFFFF7ACFFE7E700BF0010004019
:101AE0008C00002030B595B03422002107A800F00A
:101AF000FBF9002402940394049405940694009442
:101B0000174B1A6C42F080521A641B6C03F080531E
:101B10000093009B0194134A136823F4404343F459
:101B200080431360136803F440430193019B012534
:101B300007954FF4803308930D9407A8FFF76AF8D0
:101B40000F230293039504944FF480530593069456
:101B5000214602A8FEF7CAFEFEF7C2FE15B030BD50
:101B6000003802400070004030B583B0FEF744FDFD
:101B7000FFF7B8FFFFF780FEFFF7B8FEFFF7CCFED8
:101B80001E48FFF729FA1E4D0124009442F21073FB
:101B900022461C492846FFF779FF009442F2107351
:101BA000224619492846FFF771FFFFF741FFFFF76B
:101BB000D3FEFFF721FFC0B9FFF70EFFFFF7FCFED2
:101BC000FFF722FF0028F4D1104B5B681C68DA682D
:101BD00019895868A047044601460D4800F034FAB8
:101BE000002CEDD1FFF700FFEAE70122009242F25C
:101BF000107308490248FFF749FFE1E7B0000020F1
:101C0000D9180008082D0008102D00088C000020AD
:101C1000202D0008182D000808B54FF47A7392B2F1
:101C20000248FFF747FD002008BD00BFF800002074
:101C300038B50C460D4D4FF6FF7301222846FFF7CD
:101C4000A9FD0A23012221462846FFF733FD237808
:101C50000D2B01D0012038BD0A230122044928465A
:101C6000FFF728FD0A232370F4E700BFF8000020E7
:101C7000282D000800B583B0002100910C4B5A6C50
:101C800042F480425A645A6C02F480420092009AF4
:101C900001911A6C42F080521A641B6C03F080535D
:101CA0000193019B0720FEF7D3FC03B05DF804FB12
:101CB0000038024002680E4B9A4200D0704700B5CF
:101CC00083B00021019103F50A331A6C42F010022F
:101CD0001A641B6C03F010030193019B0A46362023
:101CE000FEF7C8FC3620FEF7F9FC03B05DF804FBF4
:101CF0000010004000B589B00023039304930593BE
:101D0000069307930268164B9A4202D009B05DF819
:101D100004FB0021019103F5FA331A6C42F40032FE
:101D20001A641A6C02F400320192019A02911A6B41
:101D300042F001021A631B6B03F001030293029B42
:101D40000C23039302230493012305930323069397
:101D50000723079303A90348FEF7E4FCD6E700BF77
:101D600000440040000002407047FEE7FEE7FEE747
:101D7000FEE770477047704708B5FEF757FC08BD8F
:101D800008B50248FFF73DF908BD00BFB0000020CC
:101D900008B503460B4A126842B10A4A1068034468
:101DA0006A46934206D8074A136008BD054A0649A9
:101DB0001160F2E700F066F80C2303604FF0FF308B
:101DC000F3E700BF9C000020400100204FF0FF30EF
:101DD00070474FF400534B6000207047012070475C
:101DE000002070470F49D1F8883043F47003C1F8E0
:101DF00088300D4B1A6842F001021A60002098608A
:101E00001A6822F0847222F480321A60074A5A60FB
:101E10001A6822F480221A60D8604FF000638B6049
:101E2000704700BF00ED00E0003802401030002491
:101E3000DFF834D0002103E00C4B5B5843500431F1
:101E40000B480C4B42189A42F6D30B4A02E000238F
:101E500042F8043B094B9A42F9D3FFF7C3FF00F065
:101E600017F8FFF781FE704700000220D42D00080C
:101E70000000002070000020700000203C010020C5
:101E8000FEE70000014B1868704700BF0C000020FF
:101E900070B50D4E0D4CA41BA4100025A54209D110
:101EA0000B4E0C4C00F00CFFA41BA4100025A54207
:101EB00005D170BD56F8253098470135EEE756F844
:101EC000253098470135F2E7CC2D0008CC2D0008CD
:101ED000CC2D0008D02D0008024B0146186800F0F8
:101EE00059B800BF0C00002002440346934200D1C1
:101EF000704703F8011BF9E738B50546002945D0BE
:101F000051F8043C0C1F002BB8BFE41800F08EF908
:101F10001F4A1368104633B9636014602846BDE851
:101F2000384000F084B9A3420CD92168621893426A
:101F300004BF1A685B68636004BF521822600460C3
:101F4000ECE713465A680AB1A242FAD91968581840
:101F5000A0420BD120680144581882421960DDD19B
:101F6000106852685A6001441960D7E702D90C23FF
:101F70002B60D3E7206821188A4204BF1168526899
:101F8000626004BF091821605C60C7E738BD00BF0C
:101F9000A400002070B5CD1C25F0030508350C2DDC
:101FA00038BF0C25002D064601DBA94203D90C23BE
:101FB0003360002070BD00F039F9214A14682146D1
:101FC00091B9204C23681BB9304600F055F82060C9
:101FD0002946304600F050F8431C24D10C233360CE
:101FE000304600F024F9E4E70B685B1B18D40B2B98
:101FF0000FD90B60CD50CC18304600F018F904F121
:102000000B00231D20F00700C31AD3D05A42E25020
:10201000D0E78C424B6816BF636013600C46EBE759
:102020000C464968CCE7C41C24F00304A04205D048
:10203000211A304600F020F80130CFD02560DBE7D0
:10204000A4000020A80000200FB40A4B13B51C68A0
:1020500024B1A36913B9204600F05EF805AB049AD9
:10206000A1680193204600F00DF902B0BDE81040D0
:1020700004B070470C00002038B5064C002305461C
:1020800008462360FFF784FE431C02D1236803B196
:102090002B6038BD38010020002310B50446C0E98C
:1020A0000033836081814366C281C0E90433836168
:1020B000194608225C30FFF717FF054B6362054B9A
:1020C000A362054BE362054B2462236310BD00BF8E
:1020D000C1270008E32700081B2800083F28000844
:1020E000014900F085B800BF192B000870B54A1EE1
:1020F000682555430E4605F17401FFF74BFF044672
:1021000040B10021C0E900160C30A06005F1680262
:10211000FFF7EAFE204670BD836910B5044633BB65
:10212000C0E912330365124B124A1B68826298425F
:1021300004BF0123836100F01FF86060204600F0B7
:102140001BF8A060204600F017F80022E060042190
:102150006068FFF7A1FF01220921A068FFF79CFF3B
:1021600002221221E068FFF797FF0123A36110BD4F
:102170002C2D0008E1200008F8B51B4B1E68B36940
:10218000074613B93046FFF7C7FF4836D6E9013492
:10219000013B03D5336833B13668F7E7B4F90C5027
:1021A0006DB16834F4E704213846FFF79FFF3060D3
:1021B0000028F1D10C233B6004462046F8BD0B4BB0
:1021C0006566C4E90055A560C4E90335C4E9055551
:1021D0000822294604F15C00FFF786FEC4E90D558C
:1021E000C4E91255E9E700BF2C2D00080100FFFFEC
:1021F0002DE9F8438046894600F14804002614B9C9
:102200003046BDE8F883D4E90175013F01D5246863
:10221000F5E7AB89012B07D9B5F90E30013303D0AF
:1022200029464046C84706436835EEE77047704781
:102230009368013B002B10B4936008DA9469A342C1
:1022400001DB0A2903D15DF8044B00F0FDBA1368E5
:10225000581C1060197008465DF8044B7047F8B5BB
:1022600006460F461446D518AC4201D1002007E0BF
:102270003A4614F8011B3046FFF7DAFF431CF3D14E
:10228000F8BD00002DE9F04F0C469DB017461D46E5
:10229000064618B183690BB9FFF73EFF7C4B9C42A1
:1022A00058D17468A38918075ED52369002B5BD0C9
:1022B0000023099320238DF8293030238DF82A300C
:1022C00003954FF0010BB846454615F8013B0BB19D
:1022D000252B54D1B8EB070A0BD053463A4621467A
:1022E0003046FFF7BCFF013000F0C280099B534429
:1022F000099398F80030002B00F0BA8000234FF0CB
:10230000FF32CDE90523049307938DF853301A93D8
:10231000A846052218F8011B5E48FEF7F9F8049B51
:1023200078BBD90644BF20228DF853201A0744BF3A
:102330002B228DF853202A782A2A2AD0079AA846D9
:1023400000200A25414611F8013B303B092B69D991
:1023500060B324E0504B9C4201D1B468A2E74F4BDC
:102360009C4208BFF4689DE72146304600F0D0FA51
:1023700000289DD04FF0FF301DB0BDE8F08FA8467B
:10238000A2E7444A801A0BFA00F01843049045462D
:10239000BEE7039A111D12680391002A01DB079220
:1023A00004E0524243F002030792049398F800308D
:1023B0002E2B0ED198F801302A2B38D1039B1A1DF1
:1023C0001B680392002BB8BF4FF0FF3308F10208DF
:1023D0000593334D98F8001003222846FEF798F82D
:1023E00040B14023401B03FA00F0049B034308F173
:1023F0000108049398F800102A488DF82810062246
:1024000008F10107FEF784F8002837D0264B1BBBE4
:10241000039B073323F0070308330393099B4B44C3
:10242000099350E705FB0232012088468AE7002322
:1024300008F10108059319460A25404610F8012BBA
:10244000303A092A03D9002BC3D00591C1E705FB17
:10245000012101238046F0E703AB00932246134B92
:1024600004A93046AFF30080B0F1FF3F8146D5D1DB
:10247000A3895B063FF57EAF09987DE703AB009328
:1024800022460A4B04A9304600F088F8ECE700BF6A
:10249000502D0008902D0008702D0008302D0008E8
:1024A000962D00089A2D0008000000005F22000809
:1024B0002DE9F04791461F468A680B69DDF82080B8
:1024C0009342B8BF1346C9F8003091F8432006463E
:1024D0000C4612B10133C9F800302368990642BF97
:1024E000D9F800300233C9F80030256815F0060528
:1024F00007D104F1190AE368D9F800209B1AAB420E
:1025000028DC94F843302268003318BF0123920678
:102510002DD404F1430239463046C047013020D063
:102520002368E568D9F8002003F00603042B08BFF0
:10253000AD1AA36822690CBF25EAE5750025934210
:10254000C4BF9B1AED184FF000091A344D451AD13B
:10255000002008E00123524639463046C04701308A
:1025600003D14FF0FF30BDE8F0870135C3E7E11834
:102570005A1C302081F84300224494F8451082F818
:1025800043100233C5E70123224639463046C0478F
:102590000130E6D009F10109D8E700002DE9F04348
:1025A00001F1430C0C46097E85B06E29174606469C
:1025B00098460C9A00F0B38022D8632936D00AD806
:1025C000002900F0B980582900F0838004F1420509
:1025D00084F8421032E0642901D06929F6D12068DC
:1025E0001368050603F104012AD51B681160002B4E
:1025F00003DA2D225B4284F843206F480A2239E037
:10260000732900F09D8008D86F2920D07029DDD172
:10261000236843F02003236003E0752917D078294D
:10262000D4D1782384F84530644855E01368191DE7
:102630001B68116004F1420584F8423001238CE0EC
:102640001B68116010F0400F18BF1BB2CFE7136872
:102650002568181D1060280601D51B6802E0680671
:10266000FBD51B8854486F2914BF0A220822002179
:1026700084F843106568A560002DC0F2958021683C
:1026800021F004012160002B3DD1002D40F08E800F
:102690006546082A0BD12368DB0708D523696268E1
:1026A0009A42DEBF302305F8013C05F1FF35ACEB63
:1026B00005032361CDF800803B4603AA214630463E
:1026C000FFF7F6FE01304DD14FF0FF3005B0BDE809
:1026D000F083394884F84510136821681D1D1B6874
:1026E00015600A060BD5CA0744BF41F020012160DE
:1026F0001BB9226822F0200222601022B7E74D06A3
:1027000048BF9BB2EFE76546B3FBF2F102FB113322
:10271000C35C05F8013D0B460029F5D1B9E7136804
:1027200025686169181D106028061B6801D51960AD
:1027300002E06A06FBD51980002323616546B9E7EC
:102740001368191D11601D68626800212846FDF795
:10275000DFFE08B1401B606063682361002384F8DA
:102760004330A7E723692A4639463046C04701303F
:10277000AAD023689B0713D4E068039B9842B8BF94
:102780001846A3E701234A4639463046C047013080
:102790009AD00135E368039A9B1AAB42F2DCEBE76F
:1027A000002504F11909F5E7002BACD1037884F872
:1027B000423004F142056CE7A12D0008B22D00085B
:1027C00010B50C46B1F90E1000F046FA0028ABBF68
:1027D000636DA3891B1823F48053ACBF6365A38189
:1027E00010BD2DE9F0411F468B89DB0505460C46DF
:1027F000164605D502230022B1F90E1000F0B6F9F5
:10280000A389B4F90E1023F48053A38132463B46CA
:102810002846BDE8F04100F069B810B50C46B1F9A2
:102820000E1000F0A3F9431CA38915BF606523F4C3
:10283000805343F48053A38118BFA38110BDB1F925
:102840000E1000F0D3B80000F8B50E461446054649
:1028500018B183690BB9FFF75FFC214B9C422AD169
:102860006C68A369A360A3891A072ED5236963B393
:1028700023692068C01A6369F6B28342374604DCD4
:102880002146284600F048F928BBA368013BA36015
:1028900023685A1C22601E7063690130834204D091
:1028A000A389DB0719D50A2E17D12146284600F047
:1028B00033F990B10FE00B4B9C4201D1AC68D0E7EB
:1028C000094B9C4208BFEC68CBE72146284600F044
:1028D0001FF80028CCD04FF0FF373846F8BD00BFB6
:1028E000502D0008702D0008302D000838B5074C19
:1028F000054608461146002222601A46FFF78CF969
:10290000431C02D1236803B12B6038BD380100207D
:10291000324B70B51D6806460C4625B1AB6913B93C
:102920002846FFF7F9FB2E4B9C420FD16C68B4F997
:102930000C309AB215072CD4D00611D4092232607B
:1029400043F04003A3814FF0FF303EE0254B9C4213
:1029500001D1AC68EBE7244B9C4208BFEC68E6E78A
:10296000510712D5616B41B104F14403994202D081
:102970003046FFF7C1FA00236363A38923F02403E1
:10298000A3810023636023692360A38943F00803C4
:10299000A38123694BB9A38903F42073B3F5007FA6
:1029A00003D02146304600F017F9A28912F0010346
:1029B0000CD00023A36063695B42A361236953B910
:1029C000B4F90C3013F08000BAD170BD920758BF33
:1029D0006369A360F2E70020F7E700BF0C00002066
:1029E000502D0008702D0008302D000838B5064C19
:1029F0000023054608462360FFF7E8F9431C02D18F
:102A0000236803B12B6038BD380100208A892DE985
:102A1000F041054610070C4658D44B68002B05DCE6
:102A20000B6C002B02DC0020BDE8F081E66A002E72
:102A3000F9D0002312F480522F68216A2B6032D023
:102A4000606DA3895A0705D56368C01A636B0BB123
:102A5000236CC01A00230246E66A216A2846B04762
:102A6000431CA38906D129681D2948D8294ACA4090
:102A7000D60744D500226260D9042269226004D5B9
:102A8000421C01D12B6803B96065616B2F6000297E
:102A9000C9D004F14403994202D02846FFF72CFA2A
:102AA00000206063C0E701232846B047411CC8D11D
:102AB0002B68002BC5D01D2B01D0162B01D12F6008
:102AC000B1E7A38943F04003A381ADE70F69002F6D
:102AD000A9D093070E6808BF4B690F6018BF002389
:102AE000A6EB07088B60B8F1000F9CDD43463A4621
:102AF000216AA66A2846B047002806DCA38943F06D
:102B00004003A3814FF0FF308EE70744A8EB000895
:102B1000E9E700BF0100402038B50B6905460C46C7
:102B2000DBB118B183690BB9FFF7F6FA0C4B9C4285
:102B300009D16C68B4F90C307BB121462846BDE858
:102B40003840FFF763BF074B9C4201D1AC68F1E707
:102B5000054B9C4208BFEC68ECE7002038BD00BF85
:102B6000502D0008702D0008302D000838B5074C96
:102B7000054608461146002222601A46FFF730F942
:102B8000431C02D1236803B12B6038BD38010020FB
:102B900070B50E46B1F90E10002996B014461D46C8
:102BA00007DA00232B60B3891A0610D44FF4806330
:102BB0000EE06A4600F062F80028F2DB019A02F4A7
:102BC0007042A2F500535A425A412A60EEE7402370
:102BD0000020236016B070BD8B8973B59D07064633
:102BE0000C4607D504F14703236023610123636189
:102BF00002B070BD01AB6A46FFF7CAFF00990546F7
:102C00003046FFF7C7F948B9B4F90C309A05EFD44C
:102C100023F0030343F00203A381E3E70D4BB36208
:102C2000A389206043F08003A381009B6361019B23
:102C300020615BB1B4F90E10304600F031F828B1D4
:102C4000A38923F0030343F00103A381A3891D4358
:102C5000A581CDE7E120000838B5074C05460846B8
:102C60001146002222601A46FEF7E2FF431C02D101
:102C7000236803B12B6038BD3801002038B5074CFC
:102C800000230546084611462360FFF7A2F8431CBF
:102C900002D1236803B12B6038BD00BF380100208A
:102CA00038B5064C0023054608462360FFF796F822
:102CB000431C02D1236803B12B6038BD38010020CA
:102CC000F8B500BFF8BC08BC9E467047F8B500BF19
:082CD000F8BC08BC9E467047E9
:102CD80000000000000000000102030406070809C4
:102CE80000000000010203040D25730A0000000023
:102CF8000D5B20002825642920000000205D0000CD
:102D08007461736B203200007461736B20310000B2
:102D180069646C65000000000D256C7500000000FA
:102D28000A00000010000020000000000000000061
:102D3800000000000000000000000000000000008B
:102D4800000000000000000000000000000000007B
:102D5800000000000000000000000000000000006B
:102D6800000000000000000000000000000000005B
:102D7800000000000000000000000000000000004B
:102D88000000000000000000232D302B2000686C9C
:102D98004C00656667454647003031323334353676
:102DA80037383941424344454600303132333435AF
:0C2DB800363738396162636465660000DC
:082DC4007CD4FF7F0100000038
:042DCC00F501000805
:042DD000D101000825
:102DD40001000000100000000024F4001000002096
:102DE40000000000502D0008702D0008302D000850
:102DF40000000000000000000000000000000000CF
:102E040000000000000000000000000000000000BE
:102E140000000000000000000000000000000000AE
:102E2400000000000000000000000000000000009E
:102E3400000000000000000000000000000000008E
:0400000508001E31A0
:00000001FF
